{
  "contractName": "Auction",
  "abi": [
    {
      "inputs": [],
      "stateMutability": "nonpayable",
      "type": "constructor"
    },
    {
      "anonymous": false,
      "inputs": [
        {
          "indexed": false,
          "internalType": "uint256",
          "name": "amount",
          "type": "uint256"
        },
        {
          "indexed": false,
          "internalType": "uint256",
          "name": "gas",
          "type": "uint256"
        }
      ],
      "name": "Log",
      "type": "event"
    },
    {
      "inputs": [],
      "name": "idCount",
      "outputs": [
        {
          "internalType": "uint256",
          "name": "",
          "type": "uint256"
        }
      ],
      "stateMutability": "view",
      "type": "function",
      "constant": true
    },
    {
      "inputs": [
        {
          "internalType": "uint256",
          "name": "",
          "type": "uint256"
        }
      ],
      "name": "itemMap",
      "outputs": [
        {
          "internalType": "uint256",
          "name": "id",
          "type": "uint256"
        },
        {
          "internalType": "string",
          "name": "name",
          "type": "string"
        },
        {
          "internalType": "string",
          "name": "content",
          "type": "string"
        },
        {
          "internalType": "uint256",
          "name": "status",
          "type": "uint256"
        },
        {
          "internalType": "uint256",
          "name": "price",
          "type": "uint256"
        },
        {
          "internalType": "address payable",
          "name": "owner",
          "type": "address"
        },
        {
          "internalType": "address payable",
          "name": "bidder",
          "type": "address"
        }
      ],
      "stateMutability": "view",
      "type": "function",
      "constant": true
    },
    {
      "stateMutability": "payable",
      "type": "receive",
      "payable": true
    },
    {
      "inputs": [
        {
          "internalType": "string",
          "name": "name",
          "type": "string"
        },
        {
          "internalType": "string",
          "name": "content",
          "type": "string"
        },
        {
          "internalType": "uint256",
          "name": "price",
          "type": "uint256"
        },
        {
          "internalType": "uint256",
          "name": "status",
          "type": "uint256"
        }
      ],
      "name": "addItem",
      "outputs": [
        {
          "internalType": "uint256",
          "name": "",
          "type": "uint256"
        }
      ],
      "stateMutability": "nonpayable",
      "type": "function"
    },
    {
      "inputs": [],
      "name": "getAll",
      "outputs": [
        {
          "components": [
            {
              "internalType": "uint256",
              "name": "id",
              "type": "uint256"
            },
            {
              "internalType": "string",
              "name": "name",
              "type": "string"
            },
            {
              "internalType": "string",
              "name": "content",
              "type": "string"
            },
            {
              "internalType": "uint256",
              "name": "status",
              "type": "uint256"
            },
            {
              "internalType": "uint256",
              "name": "price",
              "type": "uint256"
            },
            {
              "internalType": "address payable",
              "name": "owner",
              "type": "address"
            },
            {
              "internalType": "address payable",
              "name": "bidder",
              "type": "address"
            }
          ],
          "internalType": "struct Auction.Item[]",
          "name": "",
          "type": "tuple[]"
        }
      ],
      "stateMutability": "view",
      "type": "function",
      "constant": true
    },
    {
      "inputs": [
        {
          "internalType": "address payable",
          "name": "_to",
          "type": "address"
        },
        {
          "internalType": "uint256",
          "name": "amount",
          "type": "uint256"
        }
      ],
      "name": "sendEther",
      "outputs": [],
      "stateMutability": "payable",
      "type": "function",
      "payable": true
    },
    {
      "inputs": [
        {
          "internalType": "uint256",
          "name": "id",
          "type": "uint256"
        }
      ],
      "name": "bid",
      "outputs": [
        {
          "internalType": "uint256",
          "name": "",
          "type": "uint256"
        }
      ],
      "stateMutability": "payable",
      "type": "function",
      "payable": true
    },
    {
      "inputs": [
        {
          "internalType": "uint256",
          "name": "id",
          "type": "uint256"
        }
      ],
      "name": "end",
      "outputs": [
        {
          "internalType": "uint256",
          "name": "",
          "type": "uint256"
        }
      ],
      "stateMutability": "nonpayable",
      "type": "function"
    },
    {
      "inputs": [
        {
          "internalType": "uint256",
          "name": "id",
          "type": "uint256"
        }
      ],
      "name": "payment",
      "outputs": [
        {
          "internalType": "uint256",
          "name": "",
          "type": "uint256"
        }
      ],
      "stateMutability": "payable",
      "type": "function",
      "payable": true
    }
  ],
  "bytecode": "0x608060405234801561001057600080fd5b50611726806100206000396000f3fe60806040526004361061007f5760003560e01c8063c1756a2c1161004e578063c1756a2c1461018c578063dc8cbd2c146101a8578063e6e46238146101e5578063fee6d33114610210576100bf565b80630ad24528146100c4578063454a2ab31461010157806353ed5143146101315780638b3c99e31461015c576100bf565b366100bf577fbd0faddf87043dd749c1b9d4dca8a12589b8cb5e2106832111ce23f219b14367345a6040516100b5929190610c73565b60405180910390a1005b600080fd5b3480156100d057600080fd5b506100eb60048036038101906100e69190610cdc565b610253565b6040516100f89190610d09565b60405180910390f35b61011b60048036038101906101169190610cdc565b610303565b6040516101289190610d09565b60405180910390f35b34801561013d57600080fd5b506101466104b8565b6040516101539190610f69565b60405180910390f35b61017660048036038101906101719190610cdc565b610765565b6040516101839190610d09565b60405180910390f35b6101a660048036038101906101a19190610fb7565b610899565b005b3480156101b457600080fd5b506101cf60048036038101906101ca919061112c565b6108e4565b6040516101dc9190610d09565b60405180910390f35b3480156101f157600080fd5b506101fa610a59565b6040516102079190610d09565b60405180910390f35b34801561021c57600080fd5b5061023760048036038101906102329190610cdc565b610a5f565b60405161024a9796959493929190611224565b60405180910390f35b60008073ffffffffffffffffffffffffffffffffffffffff166001600084815260200190815260200160002060060160009054906101000a900473ffffffffffffffffffffffffffffffffffffffff1673ffffffffffffffffffffffffffffffffffffffff16036102df57600260016000848152602001908152602001600020600301819055506102fb565b6001806000848152602001908152602001600020600301819055505b819050919050565b60008073ffffffffffffffffffffffffffffffffffffffff166001600084815260200190815260200160002060060160009054906101000a900473ffffffffffffffffffffffffffffffffffffffff1673ffffffffffffffffffffffffffffffffffffffff1614610434573073ffffffffffffffffffffffffffffffffffffffff1663c1756a2c6001600085815260200190815260200160002060060160009054906101000a900473ffffffffffffffffffffffffffffffffffffffff16600560016000878152602001908152602001600020600401546103e491906112ff565b6040518363ffffffff1660e01b8152600401610401929190611330565b600060405180830381600087803b15801561041b57600080fd5b505af115801561042f573d6000803e3d6000fd5b505050505b6005346104419190611359565b6001600084815260200190815260200160002060040181905550336001600084815260200190815260200160002060060160006101000a81548173ffffffffffffffffffffffffffffffffffffffff021916908373ffffffffffffffffffffffffffffffffffffffff160217905550349050919050565b60606000805467ffffffffffffffff8111156104d7576104d6611001565b5b60405190808252806020026020018201604052801561051057816020015b6104fd610bf1565b8152602001906001900390816104f55790505b50905060005b60005481101561075d57600160008281526020019081526020016000206040518060e001604052908160008201548152602001600182018054610558906113ca565b80601f0160208091040260200160405190810160405280929190818152602001828054610584906113ca565b80156105d15780601f106105a6576101008083540402835291602001916105d1565b820191906000526020600020905b8154815290600101906020018083116105b457829003601f168201915b505050505081526020016002820180546105ea906113ca565b80601f0160208091040260200160405190810160405280929190818152602001828054610616906113ca565b80156106635780601f1061063857610100808354040283529160200191610663565b820191906000526020600020905b81548152906001019060200180831161064657829003601f168201915b5050505050815260200160038201548152602001600482015481526020016005820160009054906101000a900473ffffffffffffffffffffffffffffffffffffffff1673ffffffffffffffffffffffffffffffffffffffff1673ffffffffffffffffffffffffffffffffffffffff1681526020016006820160009054906101000a900473ffffffffffffffffffffffffffffffffffffffff1673ffffffffffffffffffffffffffffffffffffffff1673ffffffffffffffffffffffffffffffffffffffff168152505082828151811061073f5761073e6113fb565b5b602002602001018190525080806107559061142a565b915050610516565b508091505090565b60003073ffffffffffffffffffffffffffffffffffffffff1663c1756a2c6001600085815260200190815260200160002060050160009054906101000a900473ffffffffffffffffffffffffffffffffffffffff1660016000868152602001908152602001600020600401546040518363ffffffff1660e01b81526004016107ee929190611330565b600060405180830381600087803b15801561080857600080fd5b505af115801561081c573d6000803e3d6000fd5b50505050336001600084815260200190815260200160002060050160006101000a81548173ffffffffffffffffffffffffffffffffffffffff021916908373ffffffffffffffffffffffffffffffffffffffff16021790555060026001600084815260200190815260200160002060030181905550349050919050565b8173ffffffffffffffffffffffffffffffffffffffff166108fc829081150290604051600060405180830381858888f193505050501580156108df573d6000803e3d6000fd5b505050565b60006040518060e0016040528060005481526020018681526020018581526020018381526020018481526020013373ffffffffffffffffffffffffffffffffffffffff168152602001600073ffffffffffffffffffffffffffffffffffffffff16815250600160008054815260200190815260200160002060008201518160000155602082015181600101908161097b919061161e565b506040820151816002019081610991919061161e565b50606082015181600301556080820151816004015560a08201518160050160006101000a81548173ffffffffffffffffffffffffffffffffffffffff021916908373ffffffffffffffffffffffffffffffffffffffff16021790555060c08201518160060160006101000a81548173ffffffffffffffffffffffffffffffffffffffff021916908373ffffffffffffffffffffffffffffffffffffffff1602179055509050506000808154610a459061142a565b919050819055506000549050949350505050565b60005481565b6001602052806000526040600020600091509050806000015490806001018054610a88906113ca565b80601f0160208091040260200160405190810160405280929190818152602001828054610ab4906113ca565b8015610b015780601f10610ad657610100808354040283529160200191610b01565b820191906000526020600020905b815481529060010190602001808311610ae457829003601f168201915b505050505090806002018054610b16906113ca565b80601f0160208091040260200160405190810160405280929190818152602001828054610b42906113ca565b8015610b8f5780601f10610b6457610100808354040283529160200191610b8f565b820191906000526020600020905b815481529060010190602001808311610b7257829003601f168201915b5050505050908060030154908060040154908060050160009054906101000a900473ffffffffffffffffffffffffffffffffffffffff16908060060160009054906101000a900473ffffffffffffffffffffffffffffffffffffffff16905087565b6040518060e001604052806000815260200160608152602001606081526020016000815260200160008152602001600073ffffffffffffffffffffffffffffffffffffffff168152602001600073ffffffffffffffffffffffffffffffffffffffff1681525090565b6000819050919050565b610c6d81610c5a565b82525050565b6000604082019050610c886000830185610c64565b610c956020830184610c64565b9392505050565b6000604051905090565b600080fd5b600080fd5b610cb981610c5a565b8114610cc457600080fd5b50565b600081359050610cd681610cb0565b92915050565b600060208284031215610cf257610cf1610ca6565b5b6000610d0084828501610cc7565b91505092915050565b6000602082019050610d1e6000830184610c64565b92915050565b600081519050919050565b600082825260208201905092915050565b6000819050602082019050919050565b610d5981610c5a565b82525050565b600081519050919050565b600082825260208201905092915050565b60005b83811015610d99578082015181840152602081019050610d7e565b60008484015250505050565b6000601f19601f8301169050919050565b6000610dc182610d5f565b610dcb8185610d6a565b9350610ddb818560208601610d7b565b610de481610da5565b840191505092915050565b600073ffffffffffffffffffffffffffffffffffffffff82169050919050565b6000610e1a82610def565b9050919050565b610e2a81610e0f565b82525050565b600060e083016000830151610e486000860182610d50565b5060208301518482036020860152610e608282610db6565b91505060408301518482036040860152610e7a8282610db6565b9150506060830151610e8f6060860182610d50565b506080830151610ea26080860182610d50565b5060a0830151610eb560a0860182610e21565b5060c0830151610ec860c0860182610e21565b508091505092915050565b6000610edf8383610e30565b905092915050565b6000602082019050919050565b6000610eff82610d24565b610f098185610d2f565b935083602082028501610f1b85610d40565b8060005b85811015610f575784840389528151610f388582610ed3565b9450610f4383610ee7565b925060208a01995050600181019050610f1f565b50829750879550505050505092915050565b60006020820190508181036000830152610f838184610ef4565b905092915050565b610f9481610e0f565b8114610f9f57600080fd5b50565b600081359050610fb181610f8b565b92915050565b60008060408385031215610fce57610fcd610ca6565b5b6000610fdc85828601610fa2565b9250506020610fed85828601610cc7565b9150509250929050565b600080fd5b600080fd5b7f4e487b7100000000000000000000000000000000000000000000000000000000600052604160045260246000fd5b61103982610da5565b810181811067ffffffffffffffff8211171561105857611057611001565b5b80604052505050565b600061106b610c9c565b90506110778282611030565b919050565b600067ffffffffffffffff82111561109757611096611001565b5b6110a082610da5565b9050602081019050919050565b82818337600083830152505050565b60006110cf6110ca8461107c565b611061565b9050828152602081018484840111156110eb576110ea610ffc565b5b6110f68482856110ad565b509392505050565b600082601f83011261111357611112610ff7565b5b81356111238482602086016110bc565b91505092915050565b6000806000806080858703121561114657611145610ca6565b5b600085013567ffffffffffffffff81111561116457611163610cab565b5b611170878288016110fe565b945050602085013567ffffffffffffffff81111561119157611190610cab565b5b61119d878288016110fe565b93505060406111ae87828801610cc7565b92505060606111bf87828801610cc7565b91505092959194509250565b600082825260208201905092915050565b60006111e782610d5f565b6111f181856111cb565b9350611201818560208601610d7b565b61120a81610da5565b840191505092915050565b61121e81610e0f565b82525050565b600060e082019050611239600083018a610c64565b818103602083015261124b81896111dc565b9050818103604083015261125f81886111dc565b905061126e6060830187610c64565b61127b6080830186610c64565b61128860a0830185611215565b61129560c0830184611215565b98975050505050505050565b7f4e487b7100000000000000000000000000000000000000000000000000000000600052601260045260246000fd5b7f4e487b7100000000000000000000000000000000000000000000000000000000600052601160045260246000fd5b600061130a82610c5a565b915061131583610c5a565b925082611325576113246112a1565b5b828204905092915050565b60006040820190506113456000830185611215565b6113526020830184610c64565b9392505050565b600061136482610c5a565b915061136f83610c5a565b925082820261137d81610c5a565b91508282048414831517611394576113936112d0565b5b5092915050565b7f4e487b7100000000000000000000000000000000000000000000000000000000600052602260045260246000fd5b600060028204905060018216806113e257607f821691505b6020821081036113f5576113f461139b565b5b50919050565b7f4e487b7100000000000000000000000000000000000000000000000000000000600052603260045260246000fd5b600061143582610c5a565b91507fffffffffffffffffffffffffffffffffffffffffffffffffffffffffffffffff8203611467576114666112d0565b5b600182019050919050565b60008190508160005260206000209050919050565b60006020601f8301049050919050565b600082821b905092915050565b6000600883026114d47fffffffffffffffffffffffffffffffffffffffffffffffffffffffffffffffff82611497565b6114de8683611497565b95508019841693508086168417925050509392505050565b6000819050919050565b600061151b61151661151184610c5a565b6114f6565b610c5a565b9050919050565b6000819050919050565b61153583611500565b61154961154182611522565b8484546114a4565b825550505050565b600090565b61155e611551565b61156981848461152c565b505050565b5b8181101561158d57611582600082611556565b60018101905061156f565b5050565b601f8211156115d2576115a381611472565b6115ac84611487565b810160208510156115bb578190505b6115cf6115c785611487565b83018261156e565b50505b505050565b600082821c905092915050565b60006115f5600019846008026115d7565b1980831691505092915050565b600061160e83836115e4565b9150826002028217905092915050565b61162782610d5f565b67ffffffffffffffff8111156116405761163f611001565b5b61164a82546113ca565b611655828285611591565b600060209050601f8311600181146116885760008415611676578287015190505b6116808582611602565b8655506116e8565b601f19841661169686611472565b60005b828110156116be57848901518255600182019150602085019450602081019050611699565b868310156116db57848901516116d7601f8916826115e4565b8355505b6001600288020188555050505b50505050505056fea264697066735822122083b580d46970004c8081a845ff2412301eedc3246e12a0bcb289a730e0ffbc7c64736f6c63430008120033",
  "immutableReferences": {},
  "source": "// SPDX-License-Identifier: MIT\npragma solidity >=0.4.22 <0.9.0;\n\ncontract Auction {\n    event Log(uint amount, uint gas);\n\n    receive() external payable {\n        emit Log(msg.value, gasleft());\n    }\n\n    struct Item {\n        uint id;\n        string name;\n        string content;\n        uint status;\n        uint price;\n        address payable owner;\n        address payable bidder;\n    }\n\n    constructor() {\n        // addItem(\"item1\", \"This is the first item\", 0, 0);\n        // addItem(\"item2\", \"This is the second item\", 0, 0);\n        // addItem(\"item3\", \"This is the third item\", 0, 0);\n        // addItem(\"item4\", \"This is the item in status 1\", 5, 1);\n        // addItem(\"item5\", \"This is teh item in status 2\", 10, 2);\n    }\n\n    uint public idCount;\n    mapping(uint => Item) public itemMap;\n\n    function addItem(\n        string memory name,\n        string memory content,\n        uint price,\n        uint status\n    ) public returns (uint) {\n        itemMap[idCount] = Item(\n            idCount,\n            name,\n            content,\n            status,\n            price,\n            payable(msg.sender),\n            payable(address(0))\n        );\n        ++idCount;\n        return idCount;\n    }\n\n    function getAll() public view returns (Item[] memory) {\n        Item[] memory itemArr = new Item[](idCount);\n        for (uint i = 0; i < idCount; i++) {\n            itemArr[i] = itemMap[i];\n        }\n        return itemArr;\n    }\n\n    function sendEther(address payable _to, uint amount) external payable {\n        _to.transfer(amount);\n    }\n\n    function bid(uint id) public payable returns (uint) {\n        if (itemMap[id].bidder != payable(address(0))) {\n            this.sendEther(itemMap[id].bidder, itemMap[id].price / 5);\n        }\n        itemMap[id].price = msg.value * 5;\n        itemMap[id].bidder = payable(msg.sender);\n        return msg.value;\n    }\n\n    function end(uint id) public returns (uint) {\n        if (itemMap[id].bidder == payable(address(0))) {\n            itemMap[id].status = 2;\n        } else {\n            itemMap[id].status = 1;\n        }\n        return id;\n    }\n\n    function payment(uint id) public payable returns (uint) {\n        this.sendEther(itemMap[id].owner, itemMap[id].price);\n        itemMap[id].owner = payable(msg.sender);\n        itemMap[id].status = 2;\n        return msg.value;\n    }\n}\n",
  "sourcePath": "/Users/fanxinyuan/DAuction/truffle/contracts/Auction.sol",
  "compiler": {
    "name": "solc",
    "version": "0.8.18+commit.87f61d96.Emscripten.clang"
  },
  "schemaVersion": "3.4.13",
  "updatedAt": "2023-04-10T01:15:50.390Z",
  "networkType": "ethereum",
  "devdoc": {
    "kind": "dev",
    "methods": {},
    "version": 1
  },
  "userdoc": {
    "kind": "user",
    "methods": {},
    "version": 1
  }
}